{
  "contractName": "SimpleStorage",
  "abi": [
    {
      "inputs": [],
      "stateMutability": "nonpayable",
      "type": "constructor"
    },
    {
      "anonymous": false,
      "inputs": [
        {
          "indexed": true,
          "internalType": "address",
          "name": "owner",
          "type": "address"
        },
        {
          "indexed": true,
          "internalType": "address",
          "name": "approved",
          "type": "address"
        },
        {
          "indexed": true,
          "internalType": "uint256",
          "name": "tokenId",
          "type": "uint256"
        }
      ],
      "name": "Approval",
      "type": "event"
    },
    {
      "anonymous": false,
      "inputs": [
        {
          "indexed": true,
          "internalType": "address",
          "name": "owner",
          "type": "address"
        },
        {
          "indexed": true,
          "internalType": "address",
          "name": "operator",
          "type": "address"
        },
        {
          "indexed": false,
          "internalType": "bool",
          "name": "approved",
          "type": "bool"
        }
      ],
      "name": "ApprovalForAll",
      "type": "event"
    },
    {
      "anonymous": false,
      "inputs": [
        {
          "indexed": true,
          "internalType": "address",
          "name": "from",
          "type": "address"
        },
        {
          "indexed": true,
          "internalType": "address",
          "name": "to",
          "type": "address"
        },
        {
          "indexed": true,
          "internalType": "uint256",
          "name": "tokenId",
          "type": "uint256"
        }
      ],
      "name": "Transfer",
      "type": "event"
    },
    {
      "inputs": [
        {
          "internalType": "string",
          "name": "",
          "type": "string"
        }
      ],
      "name": "NFTNameExists",
      "outputs": [
        {
          "internalType": "bool",
          "name": "",
          "type": "bool"
        }
      ],
      "stateMutability": "view",
      "type": "function"
    },
    {
      "inputs": [
        {
          "internalType": "uint256",
          "name": "",
          "type": "uint256"
        }
      ],
      "name": "NFTvalueExists",
      "outputs": [
        {
          "internalType": "bool",
          "name": "",
          "type": "bool"
        }
      ],
      "stateMutability": "view",
      "type": "function"
    },
    {
      "inputs": [
        {
          "internalType": "uint256",
          "name": "",
          "type": "uint256"
        }
      ],
      "name": "allAuctions",
      "outputs": [
        {
          "internalType": "uint256",
          "name": "AuctionID",
          "type": "uint256"
        },
        {
          "internalType": "uint256",
          "name": "whichNFT",
          "type": "uint256"
        },
        {
          "internalType": "uint256",
          "name": "MinPrice",
          "type": "uint256"
        },
        {
          "internalType": "uint256",
          "name": "MaxPrice",
          "type": "uint256"
        },
        {
          "internalType": "address payable",
          "name": "MaxBidder",
          "type": "address"
        },
        {
          "internalType": "uint256",
          "name": "endTime",
          "type": "uint256"
        },
        {
          "internalType": "bool",
          "name": "ended",
          "type": "bool"
        },
        {
          "internalType": "bool",
          "name": "claimed",
          "type": "bool"
        }
      ],
      "stateMutability": "view",
      "type": "function"
    },
    {
      "inputs": [
        {
          "internalType": "uint256",
          "name": "",
          "type": "uint256"
        }
      ],
      "name": "allNFTs",
      "outputs": [
        {
          "internalType": "uint256",
          "name": "NFTID",
          "type": "uint256"
        },
        {
          "internalType": "string",
          "name": "NFTName",
          "type": "string"
        },
        {
          "internalType": "uint256",
          "name": "NFTvalue",
          "type": "uint256"
        },
        {
          "internalType": "address",
          "name": "Owner",
          "type": "address"
        },
        {
          "internalType": "bool",
          "name": "onSale",
          "type": "bool"
        }
      ],
      "stateMutability": "view",
      "type": "function"
    },
    {
      "inputs": [
        {
          "internalType": "address",
          "name": "to",
          "type": "address"
        },
        {
          "internalType": "uint256",
          "name": "tokenId",
          "type": "uint256"
        }
      ],
      "name": "approve",
      "outputs": [],
      "stateMutability": "nonpayable",
      "type": "function"
    },
    {
      "inputs": [
        {
          "internalType": "address",
          "name": "",
          "type": "address"
        },
        {
          "internalType": "uint256",
          "name": "",
          "type": "uint256"
        }
      ],
      "name": "attendAuctions",
      "outputs": [
        {
          "internalType": "uint256",
          "name": "",
          "type": "uint256"
        }
      ],
      "stateMutability": "view",
      "type": "function"
    },
    {
      "inputs": [
        {
          "internalType": "address",
          "name": "",
          "type": "address"
        }
      ],
      "name": "attendNum",
      "outputs": [
        {
          "internalType": "uint256",
          "name": "",
          "type": "uint256"
        }
      ],
      "stateMutability": "view",
      "type": "function"
    },
    {
      "inputs": [
        {
          "internalType": "address",
          "name": "owner",
          "type": "address"
        }
      ],
      "name": "balanceOf",
      "outputs": [
        {
          "internalType": "uint256",
          "name": "",
          "type": "uint256"
        }
      ],
      "stateMutability": "view",
      "type": "function"
    },
    {
      "inputs": [
        {
          "internalType": "uint256",
          "name": "tokenId",
          "type": "uint256"
        }
      ],
      "name": "getApproved",
      "outputs": [
        {
          "internalType": "address",
          "name": "",
          "type": "address"
        }
      ],
      "stateMutability": "view",
      "type": "function"
    },
    {
      "inputs": [
        {
          "internalType": "uint256",
          "name": "",
          "type": "uint256"
        },
        {
          "internalType": "uint256",
          "name": "",
          "type": "uint256"
        }
      ],
      "name": "historyOwner",
      "outputs": [
        {
          "internalType": "address",
          "name": "",
          "type": "address"
        }
      ],
      "stateMutability": "view",
      "type": "function"
    },
    {
      "inputs": [
        {
          "internalType": "address",
          "name": "owner",
          "type": "address"
        },
        {
          "internalType": "address",
          "name": "operator",
          "type": "address"
        }
      ],
      "name": "isApprovedForAll",
      "outputs": [
        {
          "internalType": "bool",
          "name": "",
          "type": "bool"
        }
      ],
      "stateMutability": "view",
      "type": "function"
    },
    {
      "inputs": [],
      "name": "name",
      "outputs": [
        {
          "internalType": "string",
          "name": "",
          "type": "string"
        }
      ],
      "stateMutability": "view",
      "type": "function"
    },
    {
      "inputs": [
        {
          "internalType": "uint256",
          "name": "tokenId",
          "type": "uint256"
        }
      ],
      "name": "ownerOf",
      "outputs": [
        {
          "internalType": "address",
          "name": "",
          "type": "address"
        }
      ],
      "stateMutability": "view",
      "type": "function"
    },
    {
      "inputs": [
        {
          "internalType": "address",
          "name": "from",
          "type": "address"
        },
        {
          "internalType": "address",
          "name": "to",
          "type": "address"
        },
        {
          "internalType": "uint256",
          "name": "tokenId",
          "type": "uint256"
        }
      ],
      "name": "safeTransferFrom",
      "outputs": [],
      "stateMutability": "nonpayable",
      "type": "function"
    },
    {
      "inputs": [
        {
          "internalType": "address",
          "name": "from",
          "type": "address"
        },
        {
          "internalType": "address",
          "name": "to",
          "type": "address"
        },
        {
          "internalType": "uint256",
          "name": "tokenId",
          "type": "uint256"
        },
        {
          "internalType": "bytes",
          "name": "_data",
          "type": "bytes"
        }
      ],
      "name": "safeTransferFrom",
      "outputs": [],
      "stateMutability": "nonpayable",
      "type": "function"
    },
    {
      "inputs": [
        {
          "internalType": "address",
          "name": "operator",
          "type": "address"
        },
        {
          "internalType": "bool",
          "name": "approved",
          "type": "bool"
        }
      ],
      "name": "setApprovalForAll",
      "outputs": [],
      "stateMutability": "nonpayable",
      "type": "function"
    },
    {
      "inputs": [
        {
          "internalType": "bytes4",
          "name": "interfaceId",
          "type": "bytes4"
        }
      ],
      "name": "supportsInterface",
      "outputs": [
        {
          "internalType": "bool",
          "name": "",
          "type": "bool"
        }
      ],
      "stateMutability": "view",
      "type": "function"
    },
    {
      "inputs": [],
      "name": "symbol",
      "outputs": [
        {
          "internalType": "string",
          "name": "",
          "type": "string"
        }
      ],
      "stateMutability": "view",
      "type": "function"
    },
    {
      "inputs": [
        {
          "internalType": "uint256",
          "name": "index",
          "type": "uint256"
        }
      ],
      "name": "tokenByIndex",
      "outputs": [
        {
          "internalType": "uint256",
          "name": "",
          "type": "uint256"
        }
      ],
      "stateMutability": "view",
      "type": "function"
    },
    {
      "inputs": [
        {
          "internalType": "address",
          "name": "owner",
          "type": "address"
        },
        {
          "internalType": "uint256",
          "name": "index",
          "type": "uint256"
        }
      ],
      "name": "tokenOfOwnerByIndex",
      "outputs": [
        {
          "internalType": "uint256",
          "name": "",
          "type": "uint256"
        }
      ],
      "stateMutability": "view",
      "type": "function"
    },
    {
      "inputs": [
        {
          "internalType": "uint256",
          "name": "tokenId",
          "type": "uint256"
        }
      ],
      "name": "tokenURI",
      "outputs": [
        {
          "internalType": "string",
          "name": "",
          "type": "string"
        }
      ],
      "stateMutability": "view",
      "type": "function"
    },
    {
      "inputs": [],
      "name": "totAuction",
      "outputs": [
        {
          "internalType": "uint256",
          "name": "",
          "type": "uint256"
        }
      ],
      "stateMutability": "view",
      "type": "function"
    },
    {
      "inputs": [],
      "name": "totNFT",
      "outputs": [
        {
          "internalType": "uint256",
          "name": "",
          "type": "uint256"
        }
      ],
      "stateMutability": "view",
      "type": "function"
    },
    {
      "inputs": [],
      "name": "totalSupply",
      "outputs": [
        {
          "internalType": "uint256",
          "name": "",
          "type": "uint256"
        }
      ],
      "stateMutability": "view",
      "type": "function"
    },
    {
      "inputs": [
        {
          "internalType": "uint256",
          "name": "",
          "type": "uint256"
        }
      ],
      "name": "transNum",
      "outputs": [
        {
          "internalType": "uint256",
          "name": "",
          "type": "uint256"
        }
      ],
      "stateMutability": "view",
      "type": "function"
    },
    {
      "inputs": [
        {
          "internalType": "address",
          "name": "from",
          "type": "address"
        },
        {
          "internalType": "address",
          "name": "to",
          "type": "address"
        },
        {
          "internalType": "uint256",
          "name": "tokenId",
          "type": "uint256"
        }
      ],
      "name": "transferFrom",
      "outputs": [],
      "stateMutability": "nonpayable",
      "type": "function"
    },
    {
      "inputs": [
        {
          "internalType": "string",
          "name": "name",
          "type": "string"
        },
        {
          "internalType": "uint256",
          "name": "value",
          "type": "uint256"
        }
      ],
      "name": "createNFT",
      "outputs": [],
      "stateMutability": "nonpayable",
      "type": "function"
    },
    {
      "inputs": [],
      "name": "allyourNFTs",
      "outputs": [
        {
          "internalType": "uint256[]",
          "name": "",
          "type": "uint256[]"
        }
      ],
      "stateMutability": "view",
      "type": "function"
    },
    {
      "inputs": [
        {
          "internalType": "uint256",
          "name": "_NFTId",
          "type": "uint256"
        },
        {
          "internalType": "uint256",
          "name": "minprice",
          "type": "uint256"
        },
        {
          "internalType": "uint256",
          "name": "_duration",
          "type": "uint256"
        }
      ],
      "name": "startAuction",
      "outputs": [],
      "stateMutability": "nonpayable",
      "type": "function"
    },
    {
      "inputs": [
        {
          "internalType": "uint256",
          "name": "_auctionid",
          "type": "uint256"
        },
        {
          "internalType": "uint256",
          "name": "_newprice",
          "type": "uint256"
        }
      ],
      "name": "biddingforNFT",
      "outputs": [],
      "stateMutability": "nonpayable",
      "type": "function"
    },
    {
      "inputs": [
        {
          "internalType": "uint256",
          "name": "_auctionid",
          "type": "uint256"
        }
      ],
      "name": "claimNFT",
      "outputs": [],
      "stateMutability": "payable",
      "type": "function"
    }
  ],
  "bytecode": "0x60806040523480156200001157600080fd5b506040518060400160405280600e81526020017f4e465420436f6c6c656374696f6e0000000000000000000000000000000000008152506040518060400160405280600381526020017f4e46540000000000000000000000000000000000000000000000000000000000815250816000908051906020019062000096929190620000b8565b508060019080519060200190620000af929190620000b8565b505050620001cd565b828054620000c69062000168565b90600052602060002090601f016020900481019282620000ea576000855562000136565b82601f106200010557805160ff191683800117855562000136565b8280016001018555821562000136579182015b828111156200013557825182559160200191906001019062000118565b5b50905062000145919062000149565b5090565b5b80821115620001645760008160009055506001016200014a565b5090565b600060028204905060018216806200018157607f821691505b602082108114156200019857620001976200019e565b5b50919050565b7f4e487b7100000000000000000000000000000000000000000000000000000000600052602260045260246000fd5b61485280620001dd6000396000f3fe6080604052600436106101d85760003560e01c80636352211e11610102578063a22cb46511610095578063d3a4c49811610064578063d3a4c4981461075d578063df939b3614610788578063e985e9c5146107c5578063fe5c873a14610802576101d8565b8063a22cb4651461068d578063b88d4fde146106b6578063bf162d67146106df578063c87b56dd14610720576101d8565b80637a70fd0e116100d15780637a70fd0e146105d35780637ddc74d8146105fc57806391e078bb1461063957806395d89b4114610662576101d8565b80636352211e146104df578063683ac2da1461051c57806370a08231146105595780637291b05514610596576101d8565b806323b872dd1161017a5780633a25f9a7116101495780633a25f9a71461041157806342842e0e1461044e5780634f6ccce7146104775780635b0c8240146104b4576101d8565b806323b872dd1461035757806326829155146103805780632f745c59146103a957806330117071146103e6576101d8565b8063095ea7b3116101b6578063095ea7b314610282578063165c5881146102ab57806318160ddd146102ef5780631a7eb8c81461031a576101d8565b806301ffc9a7146101dd57806306fdde031461021a578063081812fc14610245575b600080fd5b3480156101e957600080fd5b5061020460048036038101906101ff91906136d6565b61081e565b6040516102119190614087565b60405180910390f35b34801561022657600080fd5b5061022f610898565b60405161023c91906140a2565b60405180910390f35b34801561025157600080fd5b5061026c600480360381019061026791906137bd565b61092a565b6040516102799190613ffe565b60405180910390f35b34801561028e57600080fd5b506102a960048036038101906102a4919061369a565b6109af565b005b3480156102b757600080fd5b506102d260048036038101906102cd91906137bd565b610ac7565b6040516102e6989796959493929190614339565b60405180910390f35b3480156102fb57600080fd5b50610304610b49565b60405161031191906142c4565b60405180910390f35b34801561032657600080fd5b50610341600480360381019061033c919061369a565b610b56565b60405161034e91906142c4565b60405180910390f35b34801561036357600080fd5b5061037e60048036038101906103799190613594565b610b87565b005b34801561038c57600080fd5b506103a760048036038101906103a29190613769565b610be7565b005b3480156103b557600080fd5b506103d060048036038101906103cb919061369a565b610e76565b6040516103dd91906142c4565b60405180910390f35b3480156103f257600080fd5b506103fb610f1b565b6040516104089190614065565b60405180910390f35b34801561041d57600080fd5b50610438600480360381019061043391906137e6565b611069565b6040516104459190613ffe565b60405180910390f35b34801561045a57600080fd5b5061047560048036038101906104709190613594565b6110b7565b005b34801561048357600080fd5b5061049e600480360381019061049991906137bd565b6110d7565b6040516104ab91906142c4565b60405180910390f35b3480156104c057600080fd5b506104c961116e565b6040516104d691906142c4565b60405180910390f35b3480156104eb57600080fd5b50610506600480360381019061050191906137bd565b611174565b6040516105139190613ffe565b60405180910390f35b34801561052857600080fd5b50610543600480360381019061053e919061352f565b611226565b60405161055091906142c4565b60405180910390f35b34801561056557600080fd5b50610580600480360381019061057b919061352f565b61123e565b60405161058d91906142c4565b60405180910390f35b3480156105a257600080fd5b506105bd60048036038101906105b89190613728565b6112f6565b6040516105ca9190614087565b60405180910390f35b3480156105df57600080fd5b506105fa60048036038101906105f591906137e6565b61132c565b005b34801561060857600080fd5b50610623600480360381019061061e91906137bd565b6115ef565b60405161063091906142c4565b60405180910390f35b34801561064557600080fd5b50610660600480360381019061065b9190613822565b611607565b005b34801561066e57600080fd5b5061067761195e565b60405161068491906140a2565b60405180910390f35b34801561069957600080fd5b506106b460048036038101906106af919061365e565b6119f0565b005b3480156106c257600080fd5b506106dd60048036038101906106d891906135e3565b611b71565b005b3480156106eb57600080fd5b50610706600480360381019061070191906137bd565b611bd3565b6040516107179594939291906142df565b60405180910390f35b34801561072c57600080fd5b50610747600480360381019061074291906137bd565b611cbe565b60405161075491906140a2565b60405180910390f35b34801561076957600080fd5b50610772611d65565b60405161077f91906142c4565b60405180910390f35b34801561079457600080fd5b506107af60048036038101906107aa91906137bd565b611d6b565b6040516107bc9190614087565b60405180910390f35b3480156107d157600080fd5b506107ec60048036038101906107e79190613558565b611d8b565b6040516107f99190614087565b60405180910390f35b61081c600480360381019061081791906137bd565b611e1f565b005b60007f780e9d63000000000000000000000000000000000000000000000000000000007bffffffffffffffffffffffffffffffffffffffffffffffffffffffff1916827bffffffffffffffffffffffffffffffffffffffffffffffffffffffff19161480610891575061089082612377565b5b9050919050565b6060600080546108a790614647565b80601f01602080910402602001604051908101604052809291908181526020018280546108d390614647565b80156109205780601f106108f557610100808354040283529160200191610920565b820191906000526020600020905b81548152906001019060200180831161090357829003601f168201915b5050505050905090565b600061093582612459565b610974576040517f08c379a000000000000000000000000000000000000000000000000000000000815260040161096b90614204565b60405180910390fd5b6004600083815260200190815260200160002060009054906101000a900473ffffffffffffffffffffffffffffffffffffffff169050919050565b60006109ba82611174565b90508073ffffffffffffffffffffffffffffffffffffffff168373ffffffffffffffffffffffffffffffffffffffff161415610a2b576040517f08c379a0000000000000000000000000000000000000000000000000000000008152600401610a2290614264565b60405180910390fd5b8073ffffffffffffffffffffffffffffffffffffffff16610a4a6124c5565b73ffffffffffffffffffffffffffffffffffffffff161480610a795750610a7881610a736124c5565b611d8b565b5b610ab8576040517f08c379a0000000000000000000000000000000000000000000000000000000008152600401610aaf90614184565b60405180910390fd5b610ac283836124cd565b505050565b60136020528060005260406000206000915090508060000154908060010154908060020154908060030154908060040160009054906101000a900473ffffffffffffffffffffffffffffffffffffffff16908060050154908060060160009054906101000a900460ff16908060060160019054906101000a900460ff16905088565b6000600880549050905090565b60116020528160005260406000208181548110610b7257600080fd5b90600052602060002001600091509150505481565b610b98610b926124c5565b82612586565b610bd7576040517f08c379a0000000000000000000000000000000000000000000000000000000008152600401610bce90614284565b60405180910390fd5b610be2838383612664565b505050565b600e82604051610bf79190613fc3565b908152602001604051809103902060009054906101000a900460ff1615610c1d57600080fd5b600f600082815260200190815260200160002060009054906101000a900460ff1615610c4857600080fd5b600a6000815480929190610c5b90614679565b9190505550610c6c33600a546128c0565b6001600e83604051610c7e9190613fc3565b908152602001604051809103902060006101000a81548160ff0219169083151502179055506001600f600083815260200190815260200160002060006101000a81548160ff021916908315150217905550600d6000600a5481526020019081526020016000206000815480929190610cf590614679565b9190505550600c6000600a548152602001908152602001600020610d1a600a54611174565b9080600181540180825580915050600190039060005260206000200160009091909190916101000a81548173ffffffffffffffffffffffffffffffffffffffff021916908373ffffffffffffffffffffffffffffffffffffffff16021790555060006040518060a00160405280600a5481526020018481526020018381526020013373ffffffffffffffffffffffffffffffffffffffff1681526020016000151581525090508060106000600a548152602001908152602001600020600082015181600001556020820151816001019080519060200190610dfc929190613353565b506040820151816002015560608201518160030160006101000a81548173ffffffffffffffffffffffffffffffffffffffff021916908373ffffffffffffffffffffffffffffffffffffffff16021790555060808201518160030160146101000a81548160ff021916908315150217905550905050505050565b6000610e818361123e565b8210610ec2576040517f08c379a0000000000000000000000000000000000000000000000000000000008152600401610eb9906140c4565b60405180910390fd5b600660008473ffffffffffffffffffffffffffffffffffffffff1673ffffffffffffffffffffffffffffffffffffffff168152602001908152602001600020600083815260200190815260200160002054905092915050565b60606000610f283361123e565b90506000600182610f3991906144c4565b67ffffffffffffffff811115610f78577f4e487b7100000000000000000000000000000000000000000000000000000000600052604160045260246000fd5b604051908082528060200260200182016040528015610fa65781602001602082028036833780820191505090505b5090508181600081518110610fe4577f4e487b7100000000000000000000000000000000000000000000000000000000600052603260045260246000fd5b6020026020010181815250506000600190505b828111611060576110083382610e76565b828281518110611041577f4e487b7100000000000000000000000000000000000000000000000000000000600052603260045260246000fd5b602002602001018181525050808061105890614679565b915050610ff7565b50809250505090565b600c602052816000526040600020818154811061108557600080fd5b906000526020600020016000915091509054906101000a900473ffffffffffffffffffffffffffffffffffffffff1681565b6110d283838360405180602001604052806000815250611b71565b505050565b60006110e1610b49565b8210611122576040517f08c379a0000000000000000000000000000000000000000000000000000000008152600401611119906142a4565b60405180910390fd5b6008828154811061115c577f4e487b7100000000000000000000000000000000000000000000000000000000600052603260045260246000fd5b90600052602060002001549050919050565b600a5481565b6000806002600084815260200190815260200160002060009054906101000a900473ffffffffffffffffffffffffffffffffffffffff169050600073ffffffffffffffffffffffffffffffffffffffff168173ffffffffffffffffffffffffffffffffffffffff16141561121d576040517f08c379a0000000000000000000000000000000000000000000000000000000008152600401611214906141c4565b60405180910390fd5b80915050919050565b60126020528060005260406000206000915090505481565b60008073ffffffffffffffffffffffffffffffffffffffff168273ffffffffffffffffffffffffffffffffffffffff1614156112af576040517f08c379a00000000000000000000000000000000000000000000000000000000081526004016112a6906141a4565b60405180910390fd5b600360008373ffffffffffffffffffffffffffffffffffffffff1673ffffffffffffffffffffffffffffffffffffffff168152602001908152602001600020549050919050565b600e818051602081018201805184825260208301602085012081835280955050505050506000915054906101000a900460ff1681565b60006013600084815260200190815260200160002060405180610100016040529081600082015481526020016001820154815260200160028201548152602001600382015481526020016004820160009054906101000a900473ffffffffffffffffffffffffffffffffffffffff1673ffffffffffffffffffffffffffffffffffffffff1673ffffffffffffffffffffffffffffffffffffffff168152602001600582015481526020016006820160009054906101000a900460ff161515151581526020016006820160019054906101000a900460ff16151515158152505090508181606001511061141d57600080fd5b8181606001818152505033816080019073ffffffffffffffffffffffffffffffffffffffff16908173ffffffffffffffffffffffffffffffffffffffff168152505080601360008581526020019081526020016000206000820151816000015560208201518160010155604082015181600201556060820151816003015560808201518160040160006101000a81548173ffffffffffffffffffffffffffffffffffffffff021916908373ffffffffffffffffffffffffffffffffffffffff16021790555060a0820151816005015560c08201518160060160006101000a81548160ff02191690831515021790555060e08201518160060160016101000a81548160ff021916908315150217905550905050601160003373ffffffffffffffffffffffffffffffffffffffff1673ffffffffffffffffffffffffffffffffffffffff168152602001908152602001600020839080600181540180825580915050600190039060005260206000200160009091909190915055601260003373ffffffffffffffffffffffffffffffffffffffff1673ffffffffffffffffffffffffffffffffffffffff16815260200190815260200160002060008154809291906115e590614679565b9190505550505050565b600d6020528060005260406000206000915090505481565b6000814261161591906144c4565b90506000601060008681526020019081526020016000206040518060a00160405290816000820154815260200160018201805461165190614647565b80601f016020809104026020016040519081016040528092919081815260200182805461167d90614647565b80156116ca5780601f1061169f576101008083540402835291602001916116ca565b820191906000526020600020905b8154815290600101906020018083116116ad57829003601f168201915b50505050508152602001600282015481526020016003820160009054906101000a900473ffffffffffffffffffffffffffffffffffffffff1673ffffffffffffffffffffffffffffffffffffffff1673ffffffffffffffffffffffffffffffffffffffff1681526020016003820160149054906101000a900460ff16151515158152505090506001816080019015159081151581525050600b600081548092919061177490614679565b91905055506000604051806101000160405280600b5481526020018781526020018681526020018681526020013373ffffffffffffffffffffffffffffffffffffffff168152602001848152602001600015158152602001600015158152509050816010600088815260200190815260200160002060008201518160000155602082015181600101908051906020019061180f929190613353565b506040820151816002015560608201518160030160006101000a81548173ffffffffffffffffffffffffffffffffffffffff021916908373ffffffffffffffffffffffffffffffffffffffff16021790555060808201518160030160146101000a81548160ff0219169083151502179055509050508060136000600b5481526020019081526020016000206000820151816000015560208201518160010155604082015181600201556060820151816003015560808201518160040160006101000a81548173ffffffffffffffffffffffffffffffffffffffff021916908373ffffffffffffffffffffffffffffffffffffffff16021790555060a0820151816005015560c08201518160060160006101000a81548160ff02191690831515021790555060e08201518160060160016101000a81548160ff021916908315150217905550905050505050505050565b60606001805461196d90614647565b80601f016020809104026020016040519081016040528092919081815260200182805461199990614647565b80156119e65780601f106119bb576101008083540402835291602001916119e6565b820191906000526020600020905b8154815290600101906020018083116119c957829003601f168201915b5050505050905090565b6119f86124c5565b73ffffffffffffffffffffffffffffffffffffffff168273ffffffffffffffffffffffffffffffffffffffff161415611a66576040517f08c379a0000000000000000000000000000000000000000000000000000000008152600401611a5d90614144565b60405180910390fd5b8060056000611a736124c5565b73ffffffffffffffffffffffffffffffffffffffff1673ffffffffffffffffffffffffffffffffffffffff16815260200190815260200160002060008473ffffffffffffffffffffffffffffffffffffffff1673ffffffffffffffffffffffffffffffffffffffff16815260200190815260200160002060006101000a81548160ff0219169083151502179055508173ffffffffffffffffffffffffffffffffffffffff16611b206124c5565b73ffffffffffffffffffffffffffffffffffffffff167f17307eab39ab6107e8899845ad3d59bd9653f200f220920489ca2b5937696c3183604051611b659190614087565b60405180910390a35050565b611b82611b7c6124c5565b83612586565b611bc1576040517f08c379a0000000000000000000000000000000000000000000000000000000008152600401611bb890614284565b60405180910390fd5b611bcd84848484612a8e565b50505050565b6010602052806000526040600020600091509050806000015490806001018054611bfc90614647565b80601f0160208091040260200160405190810160405280929190818152602001828054611c2890614647565b8015611c755780601f10611c4a57610100808354040283529160200191611c75565b820191906000526020600020905b815481529060010190602001808311611c5857829003601f168201915b5050505050908060020154908060030160009054906101000a900473ffffffffffffffffffffffffffffffffffffffff16908060030160149054906101000a900460ff16905085565b6060611cc982612459565b611d08576040517f08c379a0000000000000000000000000000000000000000000000000000000008152600401611cff90614244565b60405180910390fd5b6000611d12612aea565b90506000815111611d325760405180602001604052806000815250611d5d565b80611d3c84612b01565b604051602001611d4d929190613fda565b6040516020818303038152906040525b915050919050565b600b5481565b600f6020528060005260406000206000915054906101000a900460ff1681565b6000600560008473ffffffffffffffffffffffffffffffffffffffff1673ffffffffffffffffffffffffffffffffffffffff16815260200190815260200160002060008373ffffffffffffffffffffffffffffffffffffffff1673ffffffffffffffffffffffffffffffffffffffff16815260200190815260200160002060009054906101000a900460ff16905092915050565b60006013600083815260200190815260200160002060405180610100016040529081600082015481526020016001820154815260200160028201548152602001600382015481526020016004820160009054906101000a900473ffffffffffffffffffffffffffffffffffffffff1673ffffffffffffffffffffffffffffffffffffffff1673ffffffffffffffffffffffffffffffffffffffff168152602001600582015481526020016006820160009054906101000a900460ff161515151581526020016006820160019054906101000a900460ff16151515158152505090508060e0015115611f0f57600080fd5b806080015173ffffffffffffffffffffffffffffffffffffffff163373ffffffffffffffffffffffffffffffffffffffff1614611f4b57600080fd5b60018160e001901515908115158152505080601360008481526020019081526020016000206000820151816000015560208201518160010155604082015181600201556060820151816003015560808201518160040160006101000a81548173ffffffffffffffffffffffffffffffffffffffff021916908373ffffffffffffffffffffffffffffffffffffffff16021790555060a0820151816005015560c08201518160060160006101000a81548160ff02191690831515021790555060e08201518160060160016101000a81548160ff021916908315150217905550905050600060106000836020015181526020019081526020016000206040518060a00160405290816000820154815260200160018201805461206a90614647565b80601f016020809104026020016040519081016040528092919081815260200182805461209690614647565b80156120e35780601f106120b8576101008083540402835291602001916120e3565b820191906000526020600020905b8154815290600101906020018083116120c657829003601f168201915b50505050508152602001600282015481526020016003820160009054906101000a900473ffffffffffffffffffffffffffffffffffffffff1673ffffffffffffffffffffffffffffffffffffffff1673ffffffffffffffffffffffffffffffffffffffff1681526020016003820160149054906101000a900460ff161515151581525050905060006121788260000151611174565b905061218981338560200151612664565b8073ffffffffffffffffffffffffffffffffffffffff166108fc349081150290604051600060405180830381858888f193505050501580156121cf573d6000803e3d6000fd5b50600d60008460200151815260200190815260200160002060008154809291906121f890614679565b9190505550600c600084602001518152602001908152602001600020339080600181540180825580915050600190039060005260206000200160009091909190916101000a81548173ffffffffffffffffffffffffffffffffffffffff021916908373ffffffffffffffffffffffffffffffffffffffff16021790555033826060019073ffffffffffffffffffffffffffffffffffffffff16908173ffffffffffffffffffffffffffffffffffffffff168152505060008260800190151590811515815250508160106000856020015181526020019081526020016000206000820151816000015560208201518160010190805190602001906122fc929190613353565b506040820151816002015560608201518160030160006101000a81548173ffffffffffffffffffffffffffffffffffffffff021916908373ffffffffffffffffffffffffffffffffffffffff16021790555060808201518160030160146101000a81548160ff02191690831515021790555090505050505050565b60007f80ac58cd000000000000000000000000000000000000000000000000000000007bffffffffffffffffffffffffffffffffffffffffffffffffffffffff1916827bffffffffffffffffffffffffffffffffffffffffffffffffffffffff1916148061244257507f5b5e139f000000000000000000000000000000000000000000000000000000007bffffffffffffffffffffffffffffffffffffffffffffffffffffffff1916827bffffffffffffffffffffffffffffffffffffffffffffffffffffffff1916145b80612452575061245182612cae565b5b9050919050565b60008073ffffffffffffffffffffffffffffffffffffffff166002600084815260200190815260200160002060009054906101000a900473ffffffffffffffffffffffffffffffffffffffff1673ffffffffffffffffffffffffffffffffffffffff1614159050919050565b600033905090565b816004600083815260200190815260200160002060006101000a81548173ffffffffffffffffffffffffffffffffffffffff021916908373ffffffffffffffffffffffffffffffffffffffff160217905550808273ffffffffffffffffffffffffffffffffffffffff1661254083611174565b73ffffffffffffffffffffffffffffffffffffffff167f8c5be1e5ebec7d5bd14f71427d1e84f3dd0314c0f7b2291e5b200ac8c7c3b92560405160405180910390a45050565b600061259182612459565b6125d0576040517f08c379a00000000000000000000000000000000000000000000000000000000081526004016125c790614164565b60405180910390fd5b60006125db83611174565b90508073ffffffffffffffffffffffffffffffffffffffff168473ffffffffffffffffffffffffffffffffffffffff16148061264a57508373ffffffffffffffffffffffffffffffffffffffff166126328461092a565b73ffffffffffffffffffffffffffffffffffffffff16145b8061265b575061265a8185611d8b565b5b91505092915050565b8273ffffffffffffffffffffffffffffffffffffffff1661268482611174565b73ffffffffffffffffffffffffffffffffffffffff16146126da576040517f08c379a00000000000000000000000000000000000000000000000000000000081526004016126d190614224565b60405180910390fd5b600073ffffffffffffffffffffffffffffffffffffffff168273ffffffffffffffffffffffffffffffffffffffff16141561274a576040517f08c379a000000000000000000000000000000000000000000000000000000000815260040161274190614124565b60405180910390fd5b612755838383612d18565b6127606000826124cd565b6001600360008573ffffffffffffffffffffffffffffffffffffffff1673ffffffffffffffffffffffffffffffffffffffff16815260200190815260200160002060008282546127b0919061454b565b925050819055506001600360008473ffffffffffffffffffffffffffffffffffffffff1673ffffffffffffffffffffffffffffffffffffffff168152602001908152602001600020600082825461280791906144c4565b92505081905550816002600083815260200190815260200160002060006101000a81548173ffffffffffffffffffffffffffffffffffffffff021916908373ffffffffffffffffffffffffffffffffffffffff160217905550808273ffffffffffffffffffffffffffffffffffffffff168473ffffffffffffffffffffffffffffffffffffffff167fddf252ad1be2c89b69c2b068fc378daa952ba7f163c4a11628f55a4df523b3ef60405160405180910390a4505050565b600073ffffffffffffffffffffffffffffffffffffffff168273ffffffffffffffffffffffffffffffffffffffff161415612930576040517f08c379a0000000000000000000000000000000000000000000000000000000008152600401612927906141e4565b60405180910390fd5b61293981612459565b15612979576040517f08c379a000000000000000000000000000000000000000000000000000000000815260040161297090614104565b60405180910390fd5b61298560008383612d18565b6001600360008473ffffffffffffffffffffffffffffffffffffffff1673ffffffffffffffffffffffffffffffffffffffff16815260200190815260200160002060008282546129d591906144c4565b92505081905550816002600083815260200190815260200160002060006101000a81548173ffffffffffffffffffffffffffffffffffffffff021916908373ffffffffffffffffffffffffffffffffffffffff160217905550808273ffffffffffffffffffffffffffffffffffffffff16600073ffffffffffffffffffffffffffffffffffffffff167fddf252ad1be2c89b69c2b068fc378daa952ba7f163c4a11628f55a4df523b3ef60405160405180910390a45050565b612a99848484612664565b612aa584848484612e2c565b612ae4576040517f08c379a0000000000000000000000000000000000000000000000000000000008152600401612adb906140e4565b60405180910390fd5b50505050565b606060405180602001604052806000815250905090565b60606000821415612b49576040518060400160405280600181526020017f30000000000000000000000000000000000000000000000000000000000000008152509050612ca9565b600082905060005b60008214612b7b578080612b6490614679565b915050600a82612b74919061451a565b9150612b51565b60008167ffffffffffffffff811115612bbd577f4e487b7100000000000000000000000000000000000000000000000000000000600052604160045260246000fd5b6040519080825280601f01601f191660200182016040528015612bef5781602001600182028036833780820191505090505b5090505b60008514612ca257600182612c08919061454b565b9150600a85612c1791906146c2565b6030612c2391906144c4565b60f81b818381518110612c5f577f4e487b7100000000000000000000000000000000000000000000000000000000600052603260045260246000fd5b60200101907effffffffffffffffffffffffffffffffffffffffffffffffffffffffffffff1916908160001a905350600a85612c9b919061451a565b9450612bf3565b8093505050505b919050565b60007f01ffc9a7000000000000000000000000000000000000000000000000000000007bffffffffffffffffffffffffffffffffffffffffffffffffffffffff1916827bffffffffffffffffffffffffffffffffffffffffffffffffffffffff1916149050919050565b612d23838383612fc3565b600073ffffffffffffffffffffffffffffffffffffffff168373ffffffffffffffffffffffffffffffffffffffff161415612d6657612d6181612fc8565b612da5565b8173ffffffffffffffffffffffffffffffffffffffff168373ffffffffffffffffffffffffffffffffffffffff1614612da457612da38382613011565b5b5b600073ffffffffffffffffffffffffffffffffffffffff168273ffffffffffffffffffffffffffffffffffffffff161415612de857612de38161317e565b612e27565b8273ffffffffffffffffffffffffffffffffffffffff168273ffffffffffffffffffffffffffffffffffffffff1614612e2657612e2582826132c1565b5b5b505050565b6000612e4d8473ffffffffffffffffffffffffffffffffffffffff16613340565b15612fb6578373ffffffffffffffffffffffffffffffffffffffff1663150b7a02612e766124c5565b8786866040518563ffffffff1660e01b8152600401612e989493929190614019565b602060405180830381600087803b158015612eb257600080fd5b505af1925050508015612ee357506040513d601f19601f82011682018060405250810190612ee091906136ff565b60015b612f66573d8060008114612f13576040519150601f19603f3d011682016040523d82523d6000602084013e612f18565b606091505b50600081511415612f5e576040517f08c379a0000000000000000000000000000000000000000000000000000000008152600401612f55906140e4565b60405180910390fd5b805181602001fd5b63150b7a0260e01b7bffffffffffffffffffffffffffffffffffffffffffffffffffffffff1916817bffffffffffffffffffffffffffffffffffffffffffffffffffffffff191614915050612fbb565b600190505b949350505050565b505050565b6008805490506009600083815260200190815260200160002081905550600881908060018154018082558091505060019003906000526020600020016000909190919091505550565b6000600161301e8461123e565b613028919061454b565b905060006007600084815260200190815260200160002054905081811461310d576000600660008673ffffffffffffffffffffffffffffffffffffffff1673ffffffffffffffffffffffffffffffffffffffff168152602001908152602001600020600084815260200190815260200160002054905080600660008773ffffffffffffffffffffffffffffffffffffffff1673ffffffffffffffffffffffffffffffffffffffff168152602001908152602001600020600084815260200190815260200160002081905550816007600083815260200190815260200160002081905550505b6007600084815260200190815260200160002060009055600660008573ffffffffffffffffffffffffffffffffffffffff1673ffffffffffffffffffffffffffffffffffffffff16815260200190815260200160002060008381526020019081526020016000206000905550505050565b60006001600880549050613192919061454b565b90506000600960008481526020019081526020016000205490506000600883815481106131e8577f4e487b7100000000000000000000000000000000000000000000000000000000600052603260045260246000fd5b906000526020600020015490508060088381548110613230577f4e487b7100000000000000000000000000000000000000000000000000000000600052603260045260246000fd5b9060005260206000200181905550816009600083815260200190815260200160002081905550600960008581526020019081526020016000206000905560088054806132a5577f4e487b7100000000000000000000000000000000000000000000000000000000600052603160045260246000fd5b6001900381819060005260206000200160009055905550505050565b60006132cc8361123e565b905081600660008573ffffffffffffffffffffffffffffffffffffffff1673ffffffffffffffffffffffffffffffffffffffff168152602001908152602001600020600083815260200190815260200160002081905550806007600084815260200190815260200160002081905550505050565b600080823b905060008111915050919050565b82805461335f90614647565b90600052602060002090601f01602090048101928261338157600085556133c8565b82601f1061339a57805160ff19168380011785556133c8565b828001600101855582156133c8579182015b828111156133c75782518255916020019190600101906133ac565b5b5090506133d591906133d9565b5090565b5b808211156133f25760008160009055506001016133da565b5090565b6000613409613404846143e8565b6143b7565b90508281526020810184848401111561342157600080fd5b61342c848285614605565b509392505050565b600061344761344284614418565b6143b7565b90508281526020810184848401111561345f57600080fd5b61346a848285614605565b509392505050565b600081359050613481816147c0565b92915050565b600081359050613496816147d7565b92915050565b6000813590506134ab816147ee565b92915050565b6000815190506134c0816147ee565b92915050565b600082601f8301126134d757600080fd5b81356134e78482602086016133f6565b91505092915050565b600082601f83011261350157600080fd5b8135613511848260208601613434565b91505092915050565b60008135905061352981614805565b92915050565b60006020828403121561354157600080fd5b600061354f84828501613472565b91505092915050565b6000806040838503121561356b57600080fd5b600061357985828601613472565b925050602061358a85828601613472565b9150509250929050565b6000806000606084860312156135a957600080fd5b60006135b786828701613472565b93505060206135c886828701613472565b92505060406135d98682870161351a565b9150509250925092565b600080600080608085870312156135f957600080fd5b600061360787828801613472565b945050602061361887828801613472565b93505060406136298782880161351a565b925050606085013567ffffffffffffffff81111561364657600080fd5b613652878288016134c6565b91505092959194509250565b6000806040838503121561367157600080fd5b600061367f85828601613472565b925050602061369085828601613487565b9150509250929050565b600080604083850312156136ad57600080fd5b60006136bb85828601613472565b92505060206136cc8582860161351a565b9150509250929050565b6000602082840312156136e857600080fd5b60006136f68482850161349c565b91505092915050565b60006020828403121561371157600080fd5b600061371f848285016134b1565b91505092915050565b60006020828403121561373a57600080fd5b600082013567ffffffffffffffff81111561375457600080fd5b613760848285016134f0565b91505092915050565b6000806040838503121561377c57600080fd5b600083013567ffffffffffffffff81111561379657600080fd5b6137a2858286016134f0565b92505060206137b38582860161351a565b9150509250929050565b6000602082840312156137cf57600080fd5b60006137dd8482850161351a565b91505092915050565b600080604083850312156137f957600080fd5b60006138078582860161351a565b92505060206138188582860161351a565b9150509250929050565b60008060006060848603121561383757600080fd5b60006138458682870161351a565b93505060206138568682870161351a565b92505060406138678682870161351a565b9150509250925092565b600061387d8383613fa5565b60208301905092915050565b61389281614591565b82525050565b6138a18161457f565b82525050565b60006138b282614458565b6138bc8185614486565b93506138c783614448565b8060005b838110156138f85781516138df8882613871565b97506138ea83614479565b9250506001810190506138cb565b5085935050505092915050565b61390e816145a3565b82525050565b600061391f82614463565b6139298185614497565b9350613939818560208601614614565b613942816147af565b840191505092915050565b60006139588261446e565b61396281856144a8565b9350613972818560208601614614565b61397b816147af565b840191505092915050565b60006139918261446e565b61399b81856144b9565b93506139ab818560208601614614565b80840191505092915050565b60006139c4602b836144a8565b91507f455243373231456e756d657261626c653a206f776e657220696e646578206f7560008301527f74206f6620626f756e64730000000000000000000000000000000000000000006020830152604082019050919050565b6000613a2a6032836144a8565b91507f4552433732313a207472616e7366657220746f206e6f6e20455243373231526560008301527f63656976657220696d706c656d656e74657200000000000000000000000000006020830152604082019050919050565b6000613a90601c836144a8565b91507f4552433732313a20746f6b656e20616c7265616479206d696e746564000000006000830152602082019050919050565b6000613ad06024836144a8565b91507f4552433732313a207472616e7366657220746f20746865207a65726f2061646460008301527f72657373000000000000000000000000000000000000000000000000000000006020830152604082019050919050565b6000613b366019836144a8565b91507f4552433732313a20617070726f766520746f2063616c6c6572000000000000006000830152602082019050919050565b6000613b76602c836144a8565b91507f4552433732313a206f70657261746f7220717565727920666f72206e6f6e657860008301527f697374656e7420746f6b656e00000000000000000000000000000000000000006020830152604082019050919050565b6000613bdc6038836144a8565b91507f4552433732313a20617070726f76652063616c6c6572206973206e6f74206f7760008301527f6e6572206e6f7220617070726f76656420666f7220616c6c00000000000000006020830152604082019050919050565b6000613c42602a836144a8565b91507f4552433732313a2062616c616e636520717565727920666f7220746865207a6560008301527f726f2061646472657373000000000000000000000000000000000000000000006020830152604082019050919050565b6000613ca86029836144a8565b91507f4552433732313a206f776e657220717565727920666f72206e6f6e657869737460008301527f656e7420746f6b656e00000000000000000000000000000000000000000000006020830152604082019050919050565b6000613d0e6020836144a8565b91507f4552433732313a206d696e7420746f20746865207a65726f20616464726573736000830152602082019050919050565b6000613d4e602c836144a8565b91507f4552433732313a20617070726f76656420717565727920666f72206e6f6e657860008301527f697374656e7420746f6b656e00000000000000000000000000000000000000006020830152604082019050919050565b6000613db46029836144a8565b91507f4552433732313a207472616e73666572206f6620746f6b656e2074686174206960008301527f73206e6f74206f776e00000000000000000000000000000000000000000000006020830152604082019050919050565b6000613e1a602f836144a8565b91507f4552433732314d657461646174613a2055524920717565727920666f72206e6f60008301527f6e6578697374656e7420746f6b656e00000000000000000000000000000000006020830152604082019050919050565b6000613e806021836144a8565b91507f4552433732313a20617070726f76616c20746f2063757272656e74206f776e6560008301527f72000000000000000000000000000000000000000000000000000000000000006020830152604082019050919050565b6000613ee66031836144a8565b91507f4552433732313a207472616e736665722063616c6c6572206973206e6f74206f60008301527f776e6572206e6f7220617070726f7665640000000000000000000000000000006020830152604082019050919050565b6000613f4c602c836144a8565b91507f455243373231456e756d657261626c653a20676c6f62616c20696e646578206f60008301527f7574206f6620626f756e647300000000000000000000000000000000000000006020830152604082019050919050565b613fae816145fb565b82525050565b613fbd816145fb565b82525050565b6000613fcf8284613986565b915081905092915050565b6000613fe68285613986565b9150613ff28284613986565b91508190509392505050565b60006020820190506140136000830184613898565b92915050565b600060808201905061402e6000830187613898565b61403b6020830186613898565b6140486040830185613fb4565b818103606083015261405a8184613914565b905095945050505050565b6000602082019050818103600083015261407f81846138a7565b905092915050565b600060208201905061409c6000830184613905565b92915050565b600060208201905081810360008301526140bc818461394d565b905092915050565b600060208201905081810360008301526140dd816139b7565b9050919050565b600060208201905081810360008301526140fd81613a1d565b9050919050565b6000602082019050818103600083015261411d81613a83565b9050919050565b6000602082019050818103600083015261413d81613ac3565b9050919050565b6000602082019050818103600083015261415d81613b29565b9050919050565b6000602082019050818103600083015261417d81613b69565b9050919050565b6000602082019050818103600083015261419d81613bcf565b9050919050565b600060208201905081810360008301526141bd81613c35565b9050919050565b600060208201905081810360008301526141dd81613c9b565b9050919050565b600060208201905081810360008301526141fd81613d01565b9050919050565b6000602082019050818103600083015261421d81613d41565b9050919050565b6000602082019050818103600083015261423d81613da7565b9050919050565b6000602082019050818103600083015261425d81613e0d565b9050919050565b6000602082019050818103600083015261427d81613e73565b9050919050565b6000602082019050818103600083015261429d81613ed9565b9050919050565b600060208201905081810360008301526142bd81613f3f565b9050919050565b60006020820190506142d96000830184613fb4565b92915050565b600060a0820190506142f46000830188613fb4565b8181036020830152614306818761394d565b90506143156040830186613fb4565b6143226060830185613898565b61432f6080830184613905565b9695505050505050565b60006101008201905061434f600083018b613fb4565b61435c602083018a613fb4565b6143696040830189613fb4565b6143766060830188613fb4565b6143836080830187613889565b61439060a0830186613fb4565b61439d60c0830185613905565b6143aa60e0830184613905565b9998505050505050505050565b6000604051905081810181811067ffffffffffffffff821117156143de576143dd614780565b5b8060405250919050565b600067ffffffffffffffff82111561440357614402614780565b5b601f19601f8301169050602081019050919050565b600067ffffffffffffffff82111561443357614432614780565b5b601f19601f8301169050602081019050919050565b6000819050602082019050919050565b600081519050919050565b600081519050919050565b600081519050919050565b6000602082019050919050565b600082825260208201905092915050565b600082825260208201905092915050565b600082825260208201905092915050565b600081905092915050565b60006144cf826145fb565b91506144da836145fb565b9250827fffffffffffffffffffffffffffffffffffffffffffffffffffffffffffffffff0382111561450f5761450e6146f3565b5b828201905092915050565b6000614525826145fb565b9150614530836145fb565b9250826145405761453f614722565b5b828204905092915050565b6000614556826145fb565b9150614561836145fb565b925082821015614574576145736146f3565b5b828203905092915050565b600061458a826145db565b9050919050565b600061459c826145db565b9050919050565b60008115159050919050565b60007fffffffff0000000000000000000000000000000000000000000000000000000082169050919050565b600073ffffffffffffffffffffffffffffffffffffffff82169050919050565b6000819050919050565b82818337600083830152505050565b60005b83811015614632578082015181840152602081019050614617565b83811115614641576000848401525b50505050565b6000600282049050600182168061465f57607f821691505b6020821081141561467357614672614751565b5b50919050565b6000614684826145fb565b91507fffffffffffffffffffffffffffffffffffffffffffffffffffffffffffffffff8214156146b7576146b66146f3565b5b600182019050919050565b60006146cd826145fb565b91506146d8836145fb565b9250826146e8576146e7614722565b5b828206905092915050565b7f4e487b7100000000000000000000000000000000000000000000000000000000600052601160045260246000fd5b7f4e487b7100000000000000000000000000000000000000000000000000000000600052601260045260246000fd5b7f4e487b7100000000000000000000000000000000000000000000000000000000600052602260045260246000fd5b7f4e487b7100000000000000000000000000000000000000000000000000000000600052604160045260246000fd5b6000601f19601f8301169050919050565b6147c98161457f565b81146147d457600080fd5b50565b6147e0816145a3565b81146147eb57600080fd5b50565b6147f7816145af565b811461480257600080fd5b50565b61480e816145fb565b811461481957600080fd5b5056fea2646970667358221220f0845bac353db91b46960ada0b5f1d7ba27ce5a9ebdb15909aed7ab9be79709764736f6c63430008000033",
  "immutableReferences": {},
  "source": "// SPDX-License-Identifier: MIT\npragma solidity ^0.8.0;\n\n// import ERC721 iterface\n// import \"@openzeppelin/contracts/token/ERC721/extensions/ERC721URIStorage.sol\";\nimport \"../client/node_modules/openzeppelin-solidity/contracts/token/ERC721/extensions/ERC721Enumerable.sol\";\n// NFTs smart contract inherits ERC721 interface\ncontract SimpleStorage is ERC721Enumerable{\n\n\n    uint256 public totNFT;\n    uint256 public totAuction;\n   \n\n    struct NFT {\n        uint256 NFTID;\n        string NFTName;\n        uint256 NFTvalue;//nft\n        address Owner;\n       \n        bool onSale;\n    }\n    \n    mapping(uint256 => address[]) public historyOwner;\n    mapping(uint256 => uint256) public transNum;\n    \n    mapping(string => bool) public NFTNameExists;\n    mapping(uint256 => bool) public NFTvalueExists;\n    \n    mapping(uint256 => NFT) public allNFTs;\n    \n    struct Auction {\n        uint256 AuctionID;\n        uint256 whichNFT;\n        uint256 MinPrice;//\n        uint256 MaxPrice;//\n        address payable MaxBidder;//\n        uint endTime;//\n        bool ended;//\n        bool claimed;//\n    }\n    \n    mapping(address => uint256[]) public attendAuctions;\n    mapping(address => uint256) public attendNum;\n\n    mapping(uint256 => Auction) public allAuctions;\n\n    constructor() ERC721(\"NFT Collection\", \"NFT\") {}\n    \n    function createNFT(string memory name, uint256 value)public {\n        \n        require(!NFTNameExists[name]);\n        require(!NFTvalueExists[value]);\n        totNFT++;\n        _mint(msg.sender,totNFT);//NFT\n        NFTNameExists[name]=true;\n        NFTvalueExists[value]=true;\n        \n        transNum[totNFT]++;\n        historyOwner[totNFT].push(ownerOf(totNFT));\n        \n        NFT memory newNFT = NFT(\n            totNFT,\n            name,\n            value,\n            msg.sender,\n            false\n        );\n        \n        allNFTs[totNFT] = newNFT;\n\n    }\n    \n    function allyourNFTs() public view returns(uint[] memory){\n        uint balance = balanceOf(msg.sender);\n        uint256[] memory ret = new uint[](balance+1);\n        ret[0]=balance;\n        for (uint i = 1; i <= balance; i++)\n        {\n            ret[i] = uint256(tokenOfOwnerByIndex(msg.sender, i));\n        }\n        return ret;\n    }\n    \n\n    //NFTID\n    function startAuction(uint256 _NFTId,uint256 minprice,uint256 _duration)public {\n        uint endtime=block.timestamp+_duration;\n        NFT memory item=allNFTs[_NFTId];\n        item.onSale=true;\n        totAuction++;\n        Auction memory newAuction= Auction(\n            totAuction,\n            _NFTId,\n            minprice,\n            minprice,\n            payable(msg.sender),\n            endtime,\n            false,\n            false\n\n        );\n        \n        allNFTs[_NFTId]=item;\n        allAuctions[totAuction]=newAuction;\n        return ;\n    }\n\n    //  id\n    function biddingforNFT(uint256 _auctionid,uint256 _newprice)public {\n        Auction memory thisauction=allAuctions[_auctionid];\n        require(thisauction.MaxPrice<_newprice);\n        thisauction.MaxPrice=_newprice;\n        thisauction.MaxBidder=payable(msg.sender);\n        allAuctions[_auctionid]=thisauction;\n        attendAuctions[msg.sender].push(_auctionid);\n        attendNum[msg.sender]++;\n        return ;\n        \n    }\n\n    //nft auctionid\n    function claimNFT(uint256 _auctionid) public payable{\n \n        Auction memory claimedauction=allAuctions[_auctionid];\n        require(!claimedauction.claimed);\n        require(msg.sender == claimedauction.MaxBidder);\n        claimedauction.claimed=true;\n        allAuctions[_auctionid]=claimedauction;\n\n        NFT memory thisNFT=allNFTs[claimedauction.whichNFT];\n        \n        address nftOwner=ownerOf(thisNFT.NFTID);\n         _transfer(nftOwner, msg.sender, claimedauction.whichNFT);\n        payable(nftOwner).transfer(msg.value);\n        \n        transNum[claimedauction.whichNFT]++;\n        historyOwner[claimedauction.whichNFT].push(msg.sender);\n\n        thisNFT.Owner=msg.sender;\n        thisNFT.onSale=false;\n        allNFTs[claimedauction.whichNFT]=thisNFT;\n        return ;\n    }\n    \n\n}",
  "sourcePath": "D:\\blockchain\\react-box\\contracts\\SimpleStorage.sol",
  "compiler": {
    "name": "solc",
    "version": "0.8.0+commit.c7dfd78e.Emscripten.clang"
  },
  "schemaVersion": "3.4.3",
  "updatedAt": "2021-11-06T20:59:19.791Z",
  "devdoc": {
    "kind": "dev",
    "methods": {
      "approve(address,uint256)": {
        "details": "See {IERC721-approve}."
      },
      "balanceOf(address)": {
        "details": "See {IERC721-balanceOf}."
      },
      "getApproved(uint256)": {
        "details": "See {IERC721-getApproved}."
      },
      "isApprovedForAll(address,address)": {
        "details": "See {IERC721-isApprovedForAll}."
      },
      "name()": {
        "details": "See {IERC721Metadata-name}."
      },
      "ownerOf(uint256)": {
        "details": "See {IERC721-ownerOf}."
      },
      "safeTransferFrom(address,address,uint256)": {
        "details": "See {IERC721-safeTransferFrom}."
      },
      "safeTransferFrom(address,address,uint256,bytes)": {
        "details": "See {IERC721-safeTransferFrom}."
      },
      "setApprovalForAll(address,bool)": {
        "details": "See {IERC721-setApprovalForAll}."
      },
      "supportsInterface(bytes4)": {
        "details": "See {IERC165-supportsInterface}."
      },
      "symbol()": {
        "details": "See {IERC721Metadata-symbol}."
      },
      "tokenByIndex(uint256)": {
        "details": "See {IERC721Enumerable-tokenByIndex}."
      },
      "tokenOfOwnerByIndex(address,uint256)": {
        "details": "See {IERC721Enumerable-tokenOfOwnerByIndex}."
      },
      "tokenURI(uint256)": {
        "details": "See {IERC721Metadata-tokenURI}."
      },
      "totalSupply()": {
        "details": "See {IERC721Enumerable-totalSupply}."
      },
      "transferFrom(address,address,uint256)": {
        "details": "See {IERC721-transferFrom}."
      }
    },
    "version": 1
  },
  "userdoc": {
    "kind": "user",
    "methods": {},
    "version": 1
  }
}